{
  "contractName": "MultiSigWallet",
  "abi": [
    {
      "inputs": [
        {
          "internalType": "address[]",
          "name": "_owners",
          "type": "address[]"
        },
        {
          "internalType": "uint256",
          "name": "_required",
          "type": "uint256"
        }
      ],
      "stateMutability": "nonpayable",
      "type": "constructor"
    },
    {
      "anonymous": false,
      "inputs": [
        {
          "indexed": true,
          "internalType": "address",
          "name": "owner",
          "type": "address"
        },
        {
          "indexed": true,
          "internalType": "uint256",
          "name": "txId",
          "type": "uint256"
        }
      ],
      "name": "Approve",
      "type": "event"
    },
    {
      "anonymous": false,
      "inputs": [
        {
          "indexed": true,
          "internalType": "address",
          "name": "sender",
          "type": "address"
        },
        {
          "indexed": false,
          "internalType": "uint256",
          "name": "amount",
          "type": "uint256"
        }
      ],
      "name": "Deposit",
      "type": "event"
    },
    {
      "anonymous": false,
      "inputs": [
        {
          "indexed": true,
          "internalType": "uint256",
          "name": "txId",
          "type": "uint256"
        }
      ],
      "name": "Execute",
      "type": "event"
    },
    {
      "anonymous": false,
      "inputs": [
        {
          "indexed": true,
          "internalType": "address",
          "name": "owner",
          "type": "address"
        },
        {
          "indexed": true,
          "internalType": "uint256",
          "name": "txId",
          "type": "uint256"
        }
      ],
      "name": "Revoke",
      "type": "event"
    },
    {
      "anonymous": false,
      "inputs": [
        {
          "indexed": true,
          "internalType": "uint256",
          "name": "txId",
          "type": "uint256"
        }
      ],
      "name": "Submit",
      "type": "event"
    },
    {
      "inputs": [
        {
          "internalType": "uint256",
          "name": "",
          "type": "uint256"
        },
        {
          "internalType": "address",
          "name": "",
          "type": "address"
        }
      ],
      "name": "approved",
      "outputs": [
        {
          "internalType": "bool",
          "name": "",
          "type": "bool"
        }
      ],
      "stateMutability": "view",
      "type": "function",
      "constant": true
    },
    {
      "inputs": [
        {
          "internalType": "address",
          "name": "",
          "type": "address"
        }
      ],
      "name": "isOwner",
      "outputs": [
        {
          "internalType": "bool",
          "name": "",
          "type": "bool"
        }
      ],
      "stateMutability": "view",
      "type": "function",
      "constant": true
    },
    {
      "inputs": [
        {
          "internalType": "uint256",
          "name": "",
          "type": "uint256"
        }
      ],
      "name": "owners",
      "outputs": [
        {
          "internalType": "address",
          "name": "",
          "type": "address"
        }
      ],
      "stateMutability": "view",
      "type": "function",
      "constant": true
    },
    {
      "inputs": [],
      "name": "required",
      "outputs": [
        {
          "internalType": "uint256",
          "name": "",
          "type": "uint256"
        }
      ],
      "stateMutability": "view",
      "type": "function",
      "constant": true
    },
    {
      "inputs": [
        {
          "internalType": "uint256",
          "name": "",
          "type": "uint256"
        }
      ],
      "name": "transactions",
      "outputs": [
        {
          "internalType": "address",
          "name": "to",
          "type": "address"
        },
        {
          "internalType": "uint256",
          "name": "value",
          "type": "uint256"
        },
        {
          "internalType": "bytes",
          "name": "data",
          "type": "bytes"
        },
        {
          "internalType": "bool",
          "name": "executed",
          "type": "bool"
        }
      ],
      "stateMutability": "view",
      "type": "function",
      "constant": true
    },
    {
      "stateMutability": "payable",
      "type": "receive",
      "payable": true
    },
    {
      "inputs": [
        {
          "internalType": "address",
          "name": "_to",
          "type": "address"
        },
        {
          "internalType": "uint256",
          "name": "_value",
          "type": "uint256"
        },
        {
          "internalType": "bytes",
          "name": "_data",
          "type": "bytes"
        }
      ],
      "name": "submit",
      "outputs": [],
      "stateMutability": "nonpayable",
      "type": "function"
    },
    {
      "inputs": [
        {
          "internalType": "uint256",
          "name": "_txId",
          "type": "uint256"
        }
      ],
      "name": "approve",
      "outputs": [],
      "stateMutability": "nonpayable",
      "type": "function"
    },
    {
      "inputs": [
        {
          "internalType": "uint256",
          "name": "_txId",
          "type": "uint256"
        }
      ],
      "name": "execute",
      "outputs": [],
      "stateMutability": "nonpayable",
      "type": "function"
    },
    {
      "inputs": [
        {
          "internalType": "uint256",
          "name": "_txId",
          "type": "uint256"
        }
      ],
      "name": "revoke",
      "outputs": [],
      "stateMutability": "nonpayable",
      "type": "function"
    },
    {
      "inputs": [
        {
          "internalType": "uint256",
          "name": "_txId",
          "type": "uint256"
        }
      ],
      "name": "getTransaction",
      "outputs": [
        {
          "internalType": "address",
          "name": "",
          "type": "address"
        },
        {
          "internalType": "uint256",
          "name": "",
          "type": "uint256"
        },
        {
          "internalType": "bytes",
          "name": "",
          "type": "bytes"
        },
        {
          "internalType": "bool",
          "name": "",
          "type": "bool"
        }
      ],
      "stateMutability": "view",
      "type": "function",
      "constant": true
    },
    {
      "inputs": [],
      "name": "getBalance",
      "outputs": [
        {
          "internalType": "uint256",
          "name": "",
          "type": "uint256"
        }
      ],
      "stateMutability": "view",
      "type": "function",
      "constant": true
    }
  ],
  "bytecode": "0x60806040523480156200001157600080fd5b50604051620022023803806200220283398181016040528101906200003791906200050d565b60008251116200007e576040517f08c379a00000000000000000000000000000000000000000000000000000000081526004016200007590620005d4565b60405180910390fd5b60008111801562000090575081518111155b620000d2576040517f08c379a0000000000000000000000000000000000000000000000000000000008152600401620000c9906200066c565b60405180910390fd5b60005b8251811015620002d4576000838281518110620000f757620000f66200068e565b5b60200260200101519050600073ffffffffffffffffffffffffffffffffffffffff168173ffffffffffffffffffffffffffffffffffffffff160362000173576040517f08c379a00000000000000000000000000000000000000000000000000000000081526004016200016a906200070d565b60405180910390fd5b600160008273ffffffffffffffffffffffffffffffffffffffff1673ffffffffffffffffffffffffffffffffffffffff16815260200190815260200160002060009054906101000a900460ff161562000203576040517f08c379a0000000000000000000000000000000000000000000000000000000008152600401620001fa906200077f565b60405180910390fd5b60018060008373ffffffffffffffffffffffffffffffffffffffff1673ffffffffffffffffffffffffffffffffffffffff16815260200190815260200160002060006101000a81548160ff0219169083151502179055506000819080600181540180825580915050600190039060005260206000200160009091909190916101000a81548173ffffffffffffffffffffffffffffffffffffffff021916908373ffffffffffffffffffffffffffffffffffffffff160217905550508080620002cb90620007d0565b915050620000d5565b508060028190555050506200081d565b6000604051905090565b600080fd5b600080fd5b600080fd5b6000601f19601f8301169050919050565b7f4e487b7100000000000000000000000000000000000000000000000000000000600052604160045260246000fd5b6200034882620002fd565b810181811067ffffffffffffffff821117156200036a57620003696200030e565b5b80604052505050565b60006200037f620002e4565b90506200038d82826200033d565b919050565b600067ffffffffffffffff821115620003b057620003af6200030e565b5b602082029050602081019050919050565b600080fd5b600073ffffffffffffffffffffffffffffffffffffffff82169050919050565b6000620003f382620003c6565b9050919050565b6200040581620003e6565b81146200041157600080fd5b50565b6000815190506200042581620003fa565b92915050565b6000620004426200043c8462000392565b62000373565b90508083825260208201905060208402830185811115620004685762000467620003c1565b5b835b8181101562000495578062000480888262000414565b8452602084019350506020810190506200046a565b5050509392505050565b600082601f830112620004b757620004b6620002f8565b5b8151620004c98482602086016200042b565b91505092915050565b6000819050919050565b620004e781620004d2565b8114620004f357600080fd5b50565b6000815190506200050781620004dc565b92915050565b60008060408385031215620005275762000526620002ee565b5b600083015167ffffffffffffffff811115620005485762000547620002f3565b5b62000556858286016200049f565b92505060206200056985828601620004f6565b9150509250929050565b600082825260208201905092915050565b7f6f776e6572732072657569726564000000000000000000000000000000000000600082015250565b6000620005bc600e8362000573565b9150620005c98262000584565b602082019050919050565b60006020820190508181036000830152620005ef81620005ad565b9050919050565b7f696e76616c69642072657175697265206e756d626572206f66206f776e65727360008201527f7300000000000000000000000000000000000000000000000000000000000000602082015250565b60006200065460218362000573565b91506200066182620005f6565b604082019050919050565b60006020820190508181036000830152620006878162000645565b9050919050565b7f4e487b7100000000000000000000000000000000000000000000000000000000600052603260045260246000fd5b7f696e76616c6964206f776e657200000000000000000000000000000000000000600082015250565b6000620006f5600d8362000573565b91506200070282620006bd565b602082019050919050565b600060208201905081810360008301526200072881620006e6565b9050919050565b7f6f776e6572206973206e6f7420756e6971756500000000000000000000000000600082015250565b60006200076760138362000573565b915062000774826200072f565b602082019050919050565b600060208201905081810360008301526200079a8162000758565b9050919050565b7f4e487b7100000000000000000000000000000000000000000000000000000000600052601160045260246000fd5b6000620007dd82620004d2565b91507fffffffffffffffffffffffffffffffffffffffffffffffffffffffffffffffff8203620008125762000811620007a1565b5b600182019050919050565b6119d5806200082d6000396000f3fe6080604052600436106100a05760003560e01c806333ea3dc81161006457806333ea3dc8146101f15780638253951a146102315780639ace38c21461026e578063b759f954146102ae578063dc8452cd146102d7578063fe0d94c114610302576100f5565b8063025e7c27146100fa57806312065fe01461013757806314de327f1461016257806320c5429b1461018b5780632f54bf6e146101b4576100f5565b366100f5573373ffffffffffffffffffffffffffffffffffffffff167fe1fffcc4923d04b559f4d29a8bfc6cda04eb5b0d3c460751c2402c5c5cc9109c346040516100eb91906110ed565b60405180910390a2005b600080fd5b34801561010657600080fd5b50610121600480360381019061011c919061113e565b61032b565b60405161012e91906111ac565b60405180910390f35b34801561014357600080fd5b5061014c61036a565b60405161015991906110ed565b60405180910390f35b34801561016e57600080fd5b5061018960048036038101906101849190611258565b610372565b005b34801561019757600080fd5b506101b260048036038101906101ad919061113e565b61057b565b005b3480156101c057600080fd5b506101db60048036038101906101d691906112cc565b610812565b6040516101e89190611314565b60405180910390f35b3480156101fd57600080fd5b506102186004803603810190610213919061113e565b610832565b60405161022894939291906113c8565b60405180910390f35b34801561023d57600080fd5b5061025860048036038101906102539190611414565b61093a565b6040516102659190611314565b60405180910390f35b34801561027a57600080fd5b506102956004803603810190610290919061113e565b610969565b6040516102a594939291906113c8565b60405180910390f35b3480156102ba57600080fd5b506102d560048036038101906102d0919061113e565b610a5e565b005b3480156102e357600080fd5b506102ec610cf8565b6040516102f991906110ed565b60405180910390f35b34801561030e57600080fd5b506103296004803603810190610324919061113e565b610cfe565b005b6000818154811061033b57600080fd5b906000526020600020016000915054906101000a900473ffffffffffffffffffffffffffffffffffffffff1681565b600047905090565b600160003373ffffffffffffffffffffffffffffffffffffffff1673ffffffffffffffffffffffffffffffffffffffff16815260200190815260200160002060009054906101000a900460ff166103fe576040517f08c379a00000000000000000000000000000000000000000000000000000000081526004016103f5906114b1565b60405180910390fd5b600360405180608001604052808673ffffffffffffffffffffffffffffffffffffffff16815260200185815260200184848080601f016020809104026020016040519081016040528093929190818152602001838380828437600081840152601f19601f82011690508083019250505050505050815260200160001515815250908060018154018082558091505060019003906000526020600020906004020160009091909190915060008201518160000160006101000a81548173ffffffffffffffffffffffffffffffffffffffff021916908373ffffffffffffffffffffffffffffffffffffffff160217905550602082015181600101556040820151816002019080519060200190610514929190611031565b5060608201518160030160006101000a81548160ff021916908315150217905550505060016003805490506105499190611500565b7f08324b3d745b914e3abd4ffbfead91e3b78391a98c173202129215ab933adfbe60405160405180910390a250505050565b600160003373ffffffffffffffffffffffffffffffffffffffff1673ffffffffffffffffffffffffffffffffffffffff16815260200190815260200160002060009054906101000a900460ff16610607576040517f08c379a00000000000000000000000000000000000000000000000000000000081526004016105fe906114b1565b60405180910390fd5b80600380549050811061064f576040517f08c379a000000000000000000000000000000000000000000000000000000000815260040161064690611580565b60405180910390fd5b8160038181548110610664576106636115a0565b5b906000526020600020906004020160030160009054906101000a900460ff16156106c3576040517f08c379a00000000000000000000000000000000000000000000000000000000081526004016106ba9061161b565b60405180910390fd5b6004600084815260200190815260200160002060003373ffffffffffffffffffffffffffffffffffffffff1673ffffffffffffffffffffffffffffffffffffffff16815260200190815260200160002060009054906101000a900460ff16610760576040517f08c379a000000000000000000000000000000000000000000000000000000000815260040161075790611687565b60405180910390fd5b60006004600085815260200190815260200160002060003373ffffffffffffffffffffffffffffffffffffffff1673ffffffffffffffffffffffffffffffffffffffff16815260200190815260200160002060006101000a81548160ff021916908315150217905550823373ffffffffffffffffffffffffffffffffffffffff167fec9ab91322523c899ede7830ec9bfc992b5981cdcc27b91162fb23de5791117b60405160405180910390a3505050565b60016020528060005260406000206000915054906101000a900460ff1681565b60008060606000806003868154811061084e5761084d6115a0565b5b906000526020600020906004020190508060000160009054906101000a900473ffffffffffffffffffffffffffffffffffffffff168160010154826002018360030160009054906101000a900460ff168180546108aa906116d6565b80601f01602080910402602001604051908101604052809291908181526020018280546108d6906116d6565b80156109235780601f106108f857610100808354040283529160200191610923565b820191906000526020600020905b81548152906001019060200180831161090657829003601f168201915b505050505091509450945094509450509193509193565b60046020528160005260406000206020528060005260406000206000915091509054906101000a900460ff1681565b6003818154811061097957600080fd5b90600052602060002090600402016000915090508060000160009054906101000a900473ffffffffffffffffffffffffffffffffffffffff16908060010154908060020180546109c8906116d6565b80601f01602080910402602001604051908101604052809291908181526020018280546109f4906116d6565b8015610a415780601f10610a1657610100808354040283529160200191610a41565b820191906000526020600020905b815481529060010190602001808311610a2457829003601f168201915b5050505050908060030160009054906101000a900460ff16905084565b600160003373ffffffffffffffffffffffffffffffffffffffff1673ffffffffffffffffffffffffffffffffffffffff16815260200190815260200160002060009054906101000a900460ff16610aea576040517f08c379a0000000000000000000000000000000000000000000000000000000008152600401610ae1906114b1565b60405180910390fd5b806003805490508110610b32576040517f08c379a0000000000000000000000000000000000000000000000000000000008152600401610b2990611580565b60405180910390fd5b816004600082815260200190815260200160002060003373ffffffffffffffffffffffffffffffffffffffff1673ffffffffffffffffffffffffffffffffffffffff16815260200190815260200160002060009054906101000a900460ff1615610bd1576040517f08c379a0000000000000000000000000000000000000000000000000000000008152600401610bc890611753565b60405180910390fd5b8260038181548110610be657610be56115a0565b5b906000526020600020906004020160030160009054906101000a900460ff1615610c45576040517f08c379a0000000000000000000000000000000000000000000000000000000008152600401610c3c9061161b565b60405180910390fd5b60016004600086815260200190815260200160002060003373ffffffffffffffffffffffffffffffffffffffff1673ffffffffffffffffffffffffffffffffffffffff16815260200190815260200160002060006101000a81548160ff021916908315150217905550833373ffffffffffffffffffffffffffffffffffffffff167f90ec57f18fa7b15c6b8d5e4d1deb90796c74b2ff23d4d0cecad0cb42a96b312860405160405180910390a350505050565b60025481565b806003805490508110610d46576040517f08c379a0000000000000000000000000000000000000000000000000000000008152600401610d3d90611580565b60405180910390fd5b8160038181548110610d5b57610d5a6115a0565b5b906000526020600020906004020160030160009054906101000a900460ff1615610dba576040517f08c379a0000000000000000000000000000000000000000000000000000000008152600401610db19061161b565b60405180910390fd5b600254610dc684610f57565b1015610e07576040517f08c379a0000000000000000000000000000000000000000000000000000000008152600401610dfe906117bf565b60405180910390fd5b600060038481548110610e1d57610e1c6115a0565b5b9060005260206000209060040201905060018160030160006101000a81548160ff02191690831515021790555060008160000160009054906101000a900473ffffffffffffffffffffffffffffffffffffffff1673ffffffffffffffffffffffffffffffffffffffff16826001015483600201604051610e9d919061187e565b60006040518083038185875af1925050503d8060008114610eda576040519150601f19603f3d011682016040523d82523d6000602084013e610edf565b606091505b5050905080610f23576040517f08c379a0000000000000000000000000000000000000000000000000000000008152600401610f1a906118e1565b60405180910390fd5b847fddb556f1d2c1ec821e910b019d3685b229db152a0ecd517ca7e24b8bd713928960405160405180910390a25050505050565b6000805b60008054905081101561102b57600460008481526020019081526020016000206000808381548110610f9057610f8f6115a0565b5b9060005260206000200160009054906101000a900473ffffffffffffffffffffffffffffffffffffffff1673ffffffffffffffffffffffffffffffffffffffff1673ffffffffffffffffffffffffffffffffffffffff16815260200190815260200160002060009054906101000a900460ff1615611018576001826110159190611901565b91505b808061102390611957565b915050610f5b565b50919050565b82805461103d906116d6565b90600052602060002090601f01602090048101928261105f57600085556110a6565b82601f1061107857805160ff19168380011785556110a6565b828001600101855582156110a6579182015b828111156110a557825182559160200191906001019061108a565b5b5090506110b391906110b7565b5090565b5b808211156110d05760008160009055506001016110b8565b5090565b6000819050919050565b6110e7816110d4565b82525050565b600060208201905061110260008301846110de565b92915050565b600080fd5b600080fd5b61111b816110d4565b811461112657600080fd5b50565b60008135905061113881611112565b92915050565b60006020828403121561115457611153611108565b5b600061116284828501611129565b91505092915050565b600073ffffffffffffffffffffffffffffffffffffffff82169050919050565b60006111968261116b565b9050919050565b6111a68161118b565b82525050565b60006020820190506111c1600083018461119d565b92915050565b6111d08161118b565b81146111db57600080fd5b50565b6000813590506111ed816111c7565b92915050565b600080fd5b600080fd5b600080fd5b60008083601f840112611218576112176111f3565b5b8235905067ffffffffffffffff811115611235576112346111f8565b5b602083019150836001820283011115611251576112506111fd565b5b9250929050565b6000806000806060858703121561127257611271611108565b5b6000611280878288016111de565b945050602061129187828801611129565b935050604085013567ffffffffffffffff8111156112b2576112b161110d565b5b6112be87828801611202565b925092505092959194509250565b6000602082840312156112e2576112e1611108565b5b60006112f0848285016111de565b91505092915050565b60008115159050919050565b61130e816112f9565b82525050565b60006020820190506113296000830184611305565b92915050565b600081519050919050565b600082825260208201905092915050565b60005b8381101561136957808201518184015260208101905061134e565b83811115611378576000848401525b50505050565b6000601f19601f8301169050919050565b600061139a8261132f565b6113a4818561133a565b93506113b481856020860161134b565b6113bd8161137e565b840191505092915050565b60006080820190506113dd600083018761119d565b6113ea60208301866110de565b81810360408301526113fc818561138f565b905061140b6060830184611305565b95945050505050565b6000806040838503121561142b5761142a611108565b5b600061143985828601611129565b925050602061144a858286016111de565b9150509250929050565b600082825260208201905092915050565b7f6e6f74206f776e65720000000000000000000000000000000000000000000000600082015250565b600061149b600983611454565b91506114a682611465565b602082019050919050565b600060208201905081810360008301526114ca8161148e565b9050919050565b7f4e487b7100000000000000000000000000000000000000000000000000000000600052601160045260246000fd5b600061150b826110d4565b9150611516836110d4565b925082821015611529576115286114d1565b5b828203905092915050565b7f747820646f6573206e6f74206578697374730000000000000000000000000000600082015250565b600061156a601283611454565b915061157582611534565b602082019050919050565b600060208201905081810360008301526115998161155d565b9050919050565b7f4e487b7100000000000000000000000000000000000000000000000000000000600052603260045260246000fd5b7f747820616c726561647920657865637574656400000000000000000000000000600082015250565b6000611605601383611454565b9150611610826115cf565b602082019050919050565b60006020820190508181036000830152611634816115f8565b9050919050565b7f7478206e6f7420617070726f7665640000000000000000000000000000000000600082015250565b6000611671600f83611454565b915061167c8261163b565b602082019050919050565b600060208201905081810360008301526116a081611664565b9050919050565b7f4e487b7100000000000000000000000000000000000000000000000000000000600052602260045260246000fd5b600060028204905060018216806116ee57607f821691505b602082108103611701576117006116a7565b5b50919050565b7f747820616c726561647920617070726f76657200000000000000000000000000600082015250565b600061173d601383611454565b915061174882611707565b602082019050919050565b6000602082019050818103600083015261176c81611730565b9050919050565b7f617070726f76616c73203e207265717569726564000000000000000000000000600082015250565b60006117a9601483611454565b91506117b482611773565b602082019050919050565b600060208201905081810360008301526117d88161179c565b9050919050565b600081905092915050565b60008190508160005260206000209050919050565b6000815461180c816116d6565b61181681866117df565b94506001821660008114611831576001811461184257611875565b60ff19831686528186019350611875565b61184b856117ea565b60005b8381101561186d5781548189015260018201915060208101905061184e565b838801955050505b50505092915050565b600061188a82846117ff565b915081905092915050565b7f7478206661696c65640000000000000000000000000000000000000000000000600082015250565b60006118cb600983611454565b91506118d682611895565b602082019050919050565b600060208201905081810360008301526118fa816118be565b9050919050565b600061190c826110d4565b9150611917836110d4565b9250827fffffffffffffffffffffffffffffffffffffffffffffffffffffffffffffffff0382111561194c5761194b6114d1565b5b828201905092915050565b6000611962826110d4565b91507fffffffffffffffffffffffffffffffffffffffffffffffffffffffffffffffff8203611994576119936114d1565b5b60018201905091905056fea26469706673582212202d70d6de78f1c03f74bcb0149f976ba8de310443ef04be5189a9804ecd7a163364736f6c634300080e0033",
  "immutableReferences": {},
  "source": "// SPDX-License-Identifier: MIT\r\npragma solidity ^0.8.14;\r\n\r\ncontract MultiSigWallet{\r\n    event Deposit(address indexed sender, uint amount);\r\n    event Submit(uint indexed txId);\r\n    event Approve(address indexed owner, uint indexed txId);\r\n    event Revoke(address indexed owner, uint indexed txId);\r\n    event Execute(uint indexed txId);\r\n     \r\n    struct Transaction{\r\n        address to;\r\n        uint value;\r\n        bytes data;\r\n        bool executed;\r\n    }\r\n    address[] public owners;\r\n    mapping(address => bool) public isOwner;\r\n    uint public required;\r\n\r\n    Transaction[] public transactions;\r\n    mapping(uint => mapping(address => bool)) public approved;\r\n\r\n    modifier onlyOwner(){\r\n        require(isOwner[msg.sender], \"not owner\");\r\n        _;\r\n    }\r\n    modifier txExists(uint _txId){\r\n        require(_txId < transactions.length, \"tx does not exists\");\r\n        _;\r\n    }\r\n    modifier notApproved(uint _txId){\r\n        require(!approved[_txId][msg.sender], \"tx already approver\");\r\n        _; \r\n    }\r\n    modifier notExecuted(uint _txId){\r\n        require(!transactions[_txId].executed, \"tx already executed\");\r\n        _;\r\n    }\r\n\r\n    constructor(address[] memory _owners, uint _required)  {\r\n        require(_owners.length > 0, \"owners reuired\");\r\n        require(_required > 0 && _required <= _owners.length, \"invalid require number of ownerss\");\r\n\r\n        for(uint i=0; i < _owners.length; i++) {\r\n            address owner = _owners[i];\r\n            require(owner != address(0), \"invalid owner\");\r\n            require(!isOwner[owner], \"owner is not unique\");\r\n\r\n            isOwner[owner] = true;\r\n            owners.push(owner);  \r\n\r\n        }\r\n        required = _required;\r\n    }\r\n\r\n    receive() external payable {\r\n        emit Deposit(msg.sender, msg.value);\r\n    }\r\n\r\n    function submit(address _to, uint _value, bytes calldata _data) external onlyOwner {\r\n        transactions.push(Transaction({\r\n            to: _to,\r\n            value: _value,\r\n            data: _data,\r\n            executed: false\r\n        }));\r\n        emit Submit(transactions.length - 1);\r\n\r\n    }\r\n\r\n    function approve(uint _txId) external onlyOwner txExists(_txId) notApproved(_txId) notExecuted(_txId){\r\n        approved[_txId][msg.sender] = true;\r\n        emit Approve(msg.sender, _txId);\r\n\r\n    }\r\n    function _getApprovalCount(uint _txId) private view returns (uint count){\r\n        for (uint i; i < owners.length; i++){\r\n            if (approved[_txId][owners[i]]) {\r\n                count +=1;\r\n            }\r\n        }\r\n\r\n    }\r\n    function execute(uint _txId) external txExists(_txId) notExecuted(_txId) {\r\n        require(_getApprovalCount(_txId) >= required, \"approvals > required\");\r\n        Transaction storage transaction = transactions[_txId];\r\n\r\n        transaction.executed = true;\r\n\r\n        (bool success, ) = transaction.to.call{value: transaction.value}(transaction.data);\r\n\r\n        require(success, \"tx failed\");\r\n\r\n        emit Execute(_txId);\r\n    }\r\n    function revoke(uint _txId) external onlyOwner txExists(_txId) notExecuted(_txId) {\r\n        require(approved[_txId][msg.sender], \"tx not approved\");\r\n        approved[_txId][msg.sender] = false;\r\n        emit Revoke(msg.sender, _txId);\r\n    }\r\n    function getTransaction(uint _txId) public view returns (address, uint, bytes memory, bool) {\r\n        Transaction storage transaction = transactions[_txId];\r\n\r\n         return(transaction.to, transaction.value, transaction.data, transaction.executed);\r\n    }\r\n    function getBalance() public view returns (uint) {\r\n        return(address(this).balance);\r\n    }\r\n    \r\n}",
  "sourcePath": "C:\\Users\\hariharan\\OneDrive\\Documents\\multi-sig-wallet\\truffle\\contracts\\MultiSigWallet.sol",
  "compiler": {
    "name": "solc",
    "version": "0.8.14+commit.80d49f37.Emscripten.clang"
  },
  "schemaVersion": "3.4.5",
  "updatedAt": "2022-09-22T06:57:58.222Z",
  "networkType": "ethereum",
  "devdoc": {
    "kind": "dev",
    "methods": {},
    "version": 1
  },
  "userdoc": {
    "kind": "user",
    "methods": {},
    "version": 1
  }
}